:100000000C945E000C947B000C947B000C947B00A1
:100010000C947B000C947B000C947B000C947B0074
:100020000C947B000C947B000C947B000C947B0064
:100030000C947B000C947B000C947B000C947B0054
:100040000C947B000C947B000C947B000C947B0044
:100050000C947B00A401AA01B601B001B601B6015F
:10006000B601B601B601B601B601B601B601B601D8
:10007000B601B601A601AC01B601B201B601B601E6
:10008000B601B801B601B601B601B601B601B601B6
:10009000B601B601B601B601B601B601B601B601A8
:1000A000B601B601B601B601B601B601B601B60198
:1000B000B601B601A801AE01B601B40111241FBEFC
:1000C000CFE5D8E0DEBFCDBF11E0A0E6B0E0E6E5C9
:1000D000FEE002C005900D92A231B107D9F721E0F0
:1000E000A2E1B1E001C01D92AA31B207E1F70E947E
:1000F000E9030C9429070C94000094EA96BF06B615
:1001000007FEFDCF91B1987F983011F0903179F4CE
:1001100083B984E886BF06B607FEFDCF91B1987F0C
:10012000983139F081E0903429F480E0089581E03D
:10013000089580E0089584E986BF06B604FCFDCFEB
:10014000089583B984E886BF06B607FEFDCF91B156
:10015000987F81E0983209F480E00895CF93DF938F
:10016000C82F8EE40E947D00DC2FD07F8091120189
:1001700084608D2B0E94A10089EF90E00197F1F738
:1001800000C00000809112018D2B0E94A10089EF18
:1001900090E00197F1F700C0000090E1C99FE001F5
:1001A00011248091120184608C2B0E94A10089EFA0
:1001B00090E00197F1F700C00000809112018C2BB4
:1001C0000E94A10089EF90E00197F1F700C00000C4
:1001D0000E949B00DF91CF910895CF93C82F8EE4AA
:1001E0000E947D00C07F8091120184608C2B0E9450
:1001F000A10089EF90E00197F1F700C00000809125
:1002000012018C2B0E94A10089EF90E00197F1F779
:1002100000C000000E949B00CF91089580931201BE
:1002200080E30E94ED0080E30E94ED0080E30E94E5
:10023000ED0080E20E94ED0087E893E10197F1F77D
:1002400000C0000088E20E94AE008CE00E94AE0078
:1002500086E00E94AE0081E00E94AE000895CF9338
:10026000DF93C82F8EE40E947D00DC2FD07F809129
:100270001201D82B8D2F85600E94A100DA7F80911A
:1002800012018D2B0E94A10080E1C89F90011124D2
:10029000C0911201C560C22B8C2F0E94A1002C2F8F
:1002A0002A7F80911201822B0E94A1000E949B0054
:1002B000DF91CF910895623031F0633031F06130D9
:1002C00029F4805C03C08C5E01C08C5A80680E9457
:1002D000AE00089581E00E94AE0008951F93CF9371
:1002E000DF930097B1F0EC0110E007C0FE01E20FD0
:1002F000F31F80810E942F011F5F212F30E0FE013C
:1003000001900020E9F73197EC1BFD0B2E173F07FA
:1003100068F3DF91CF911F910895CF93DF93EC01A4
:10032000862F642F0E945B01CE010E946E01DF9137
:10033000CF91089590E0FC017197E433F105B0F49A
:10034000E65DFF4F0C94390481E0089582E0089542
:1003500083E0089584E0089585E0089586E0089597
:1003600087E0089588E0089589E008958FEF089563
:1003700080E008958FEF87BB80EF87BB89EF90E027
:100380000197F1F700C000008FE088BB89EF90E093
:100390000197F1F700C00000089586B3803F29F16E
:1003A00026B397B3909597BB89EF90E00197F1F74B
:1003B00000C0000098B3909598BBE9EFF0E031974A
:1003C000F1F700C0000086B3822B809597B390951B
:1003D00097BB98B3909598BBE7EDF6ED3197F1F7A1
:1003E00000C000008823C9F2089587B3809587BBB9
:1003F00088B3809588BB87ED96ED0197F1F700C033
:100400000000CBCFFF920F931F93CF93DF930E94F7
:100410006A012FEF80E792E0215080409040E1F7A1
:1004200000C0000060E080E00E945B0188E690E090
:100430000E946E012FEF80E792E0215080409040B3
:10044000E1F700C0000061E080E00E945B0110E085
:10045000CEE6D0E00E94CD01809319018831A1F44D
:1004600080911301909114019093180180931701CA
:100470000E946A012FE788E391E02150804090407C
:10048000E1F700C0000046C00E949A011F928F93BE
:10049000DF93CF9300E00F93F12CFF920E943F0473
:1004A00080911301909114019C01220F331F880F3A
:1004B000991F880F991F880F991F820F931F909380
:1004C000140180931301809119010E949A012091D7
:1004D000130130911401280F311D30931401209322
:1004E00013018F2D902F0E946E019FEF20E782E075
:1004F000915020408040E1F700C0000061E0812F72
:100500000E945B011F5F0F900F900F900F900F9054
:100510000F90A0CFDF91CF911F910F91FF90089581
:100520002FEF80E792E0215080409040E1F700C03B
:10053000000060E080E00E945B0181E790E00E94A3
:100540006E0141E060E08AE790E00E948D010E9428
:10055000CD0180931901883229F41092160110926E
:10056000150108C0813131F481E090E090931601CB
:10057000809315012FEF80E792E02150804090405A
:10058000E1F700C000000E946A012FEF80E792E0CF
:10059000215080409040E1F700C000000895CF93C3
:1005A000DF93EB0190936500809364000E946A01E1
:1005B0002FEF80E792E0215080409040E1F700C0AB
:1005C000000060E080E00E945B01CE010E946E01AD
:1005D000DF91CF9108952FEF83ED90E3215080407C
:1005E0009040E1F700C000000E946A0160E080E0F6
:1005F0000E945B018AE890E00E946E0141E060E0A9
:1006000080916600909167000E948D012FEF83E238
:1006100094EF215080409040E1F700C000008091AD
:100620006400909165008130910589F01CF4892B5C
:1006300039F008958230910589F00397B1F008955B
:100640008FEC97E00197F1F700C0000008958FEC60
:1006500097E00197F1F700C0000008958FEC97E054
:100660000197F1F700C0000008958FEC97E0019723
:10067000F1F700C000000895FC01718360838FECE6
:1006800097E00197F1F700C00000118210829FEF00
:1006900024E38CE0915020408040E1F700C000004E
:1006A0007183608387EB9BE00197F1F700C0000046
:1006B000118210829FEF24E38CE091502040804013
:1006C000E1F700C00000718360838FE99FE001972C
:1006D000F1F700C00000118210829FEF24E38CE04C
:1006E000915020408040E1F700C0000008952FEFB6
:1006F00080E792E0215080409040E1F700C0000088
:1007000060E080E00E945B0183E990E00E946E015E
:1007100041E060E08CE990E00E948D010E94CD01F3
:1007200080931901813239F118F48131A9F041C067
:10073000883219F0813471F13CC06CEA70E080E0DD
:1007400090E00E94CF0260E870E08091620090919A
:1007500063000E943C0308956CEA70E081E090E041
:100760000E94CF0260E270E080916200909163008D
:100770000E943C0308956EEB70E082E090E00E94DE
:10078000CF0268E070E080916000909161000E946B
:100790003C0308956FEC70E083E090E00E94CF028C
:1007A00060E170E080916200909163000E943C03E0
:1007B000089540E060E084EE90E00E948D012FEF0C
:1007C00081EE94E0215080409040E1F700C00000AD
:1007D000089580EB81BB88E087BB12BA18BA0E94EB
:1007E000BA0188E00E940E010E946A012FEF83ED9A
:1007F00090E3215080409040E1F700C0000060E0AD
:1008000080E00E945B0180EF90E00E946E012FEF7C
:1008100083ED90E3215080409040E1F700C000005C
:1008200041E060E08CEF90E00E948D012FEF83EDBE
:1008300090E3215080409040E1F700C000000E940A
:100840006A012FEF82E597E0215080409040E1F768
:1008500000C000000E9402020E9490020E947703E2
:1008600080916400909165000196A1F30E94EB02D3
:10087000F1CFEE0FFF1F0590F491E02D0994AEE04B
:10088000B0E0E5E4F4E00C9400070D891E8986E0F1
:100890008C831A8309838FEF9FE79E838D83AE013C
:1008A000475E5F4F6F89788DCE0101960E9461048B
:1008B000EF81F885E00FF11F10822E96E4E00C9492
:1008C0001C07ABE0B0E0E7E6F4E00C94F2066C0144
:1008D0007B018A01FC0117821682838181FFCCC1D2
:1008E000CE0101963C01F6019381F70193FD8591BC
:1008F00093FF81917F01882309F4BAC1853239F4CD
:1009000093FD859193FF81917F01853229F4B60192
:1009100090E00E945806E7CF912C212C312CFFE16A
:10092000F315D8F08B3279F038F4803279F08332D5
:10093000A1F4232D20611DC08D3261F0803369F454
:10094000232D216016C0832D8260382EE32DE460B4
:100950003E2E2AC0F32DF8601DC037FC2DC020EDBF
:10096000280F2A3040F08E32B9F436FC81C1232D95
:100970002064322E19C036FE06C08AE0989E200DF3
:100980001124922E11C0EAE02E9E200D1124222E59
:10099000F32DF0623F2E08C08C3621F4832D806841
:1009A000382E02C0883641F4F70193FD859193FFFC
:1009B00081917F018111B3CF982F9F7D9554933002
:1009C00028F40C5F1F4F9FE399830DC0833631F0ED
:1009D000833771F0833509F059C021C0F801808157
:1009E00089830E5F1F4F88248394912C530113C079
:1009F0002801F2E04F0E511CF801A080B18036FEB4
:100A000003C0692D70E002C06FEF7FEFC5010E9447
:100A10004D064C018201F32DFF773F2E16C02801B1
:100A200022E0420E511CF801A080B18036FE03C0C6
:100A3000692D70E002C06FEF7FEFC5010E94420692
:100A40004C01F32DF0683F2E820133FC1BC0822D38
:100A500090E088169906B0F4B60180E290E00E941A
:100A600058062A94F4CFF50137FC859137FE819121
:100A70005F01B60190E00E94580621102A9421E0FF
:100A8000821A91088114910471F7E8C0843611F03C
:100A9000893641F5F80137FE07C060817181828196
:100AA00093810C5F1F4F08C060817181072E000C7D
:100AB000880B990B0E5F1F4FF32DFF763F2E97FF8C
:100AC00009C090958095709561957F4F8F4F9F4F8E
:100AD000F0683F2E2AE030E0A3010E949406882EA1
:100AE000861845C0853731F4232D2F7EB22E2AE09B
:100AF00030E025C0932D997FB92E8F36C1F018F4C0
:100B0000883579F0B5C0803719F0883721F0B0C04A
:100B1000E92FE061BE2EB4FE0DC0FB2DF460BF2EA8
:100B200009C034FE0AC0292F2660B22E06C028E074
:100B300030E005C020E130E002C020E132E0F80101
:100B4000B7FE07C060817181828193810C5F1F4F66
:100B500006C06081718180E090E00E5F1F4FA301AD
:100B60000E949406882E8618FB2DFF773F2E36FEB6
:100B70000DC0232D2E7FA22E891458F434FE0BC0F5
:100B800032FC09C0832D8E7EA82E05C0B82CA32C64
:100B900003C0B82C01C0B92CA4FE0FC0FE01E80DA3
:100BA000F11D8081803321F49A2D997EA92E09C0F0
:100BB000A2FE06C0B394B39404C08A2D867809F0CF
:100BC000B394A3FC11C0A0FE06C0B21488F4280C94
:100BD000922C9B180EC0B21460F4B60180E290E033
:100BE0000E945806B394F7CFB21418F42B1802C021
:100BF000982C212CA4FE10C0B60180E390E00E9446
:100C00005806A2FE17C0A1FC03C088E790E002C00E
:100C100088E590E0B6010CC08A2D867859F0A1FED7
:100C200002C08BE201C080E2A7FC8DE2B60190E039
:100C30000E945806891438F4B60180E390E00E94BF
:100C400058069A94F7CF8A94F301E80DF11D80813C
:100C5000B60190E00E9458068110F5CF222009F4D9
:100C600042CEB60180E290E00E9458062A94F6CF68
:100C7000F6018681978102C08FEF9FEF2B96E2E10C
:100C80000C940E07FC010590615070400110D8F7DC
:100C9000809590958E0F9F1F0895FC0161507040C4
:100CA00001900110D8F7809590958E0F9F1F0895A1
:100CB0000F931F93CF93DF93FB01238121FD03C08B
:100CC0008FEF9FEF2CC022FF16C0468157812481F1
:100CD00035814217530744F4A081B1819D012F5FF4
:100CE0003F4F318320838C93268137812F5F3F4F85
:100CF0003783268314C08B01EC01FB010084F1854E
:100D0000E02D0995892BE1F6D80116968D919C91DD
:100D10001797019617969C938E931697CE01DF91A5
:100D2000CF911F910F910895FA01AA27283051F110
:100D3000203181F1E8946F936E7F6E5F7F4F8F4F0C
:100D40009F4FAF4FB1E03ED0B4E03CD0670F781F6B
:100D5000891F9A1FA11D680F791F8A1F911DA11D50
:100D60006A0F711D811D911DA11D20D009F4689489
:100D70003F912AE0269F11243019305D3193DEF631
:100D8000CF010895462F4770405D4193B3E00FD0E7
:100D9000C9F7F6CF462F4F70405D4A3318F0495DD2
:100DA00031FD4052419302D0A9F7EACFB4E0A695B5
:100DB0009795879577956795BA95C9F700976105D7
:100DC000710508959B01AC010A2E0694579547952D
:100DD00037952795BA95C9F7620F731F841F951F22
:100DE000A01D08952F923F924F925F926F927F9233
:100DF0008F929F92AF92BF92CF92DF92EF92FF922B
:100E00000F931F93CF93DF93CDB7DEB7CA1BDB0BD6
:100E10000FB6F894DEBF0FBECDBF09942A8839887B
:100E200048885F846E847D848C849B84AA84B98482
:100E3000C884DF80EE80FD800C811B81AA81B9818E
:100E4000CE0FD11D0FB6F894DEBF0FBECDBFED01A2
:060E50000895F894FFCFA5
:100E560038003200FFFF0C014167653A2000256427
:100E66000047656E6465723A2000302E4D616C65F0
:100E760020312E46656D616C6500526573756C7424
:100E86003A200053656C6563743A2000302E542076
:100E9600312E4F20322E4520332E4800506C616390
:100EA6006520596F75722046696E67657200506CD1
:100EB60061636520596F7572205468756D700050B6
:100EC6007574206974206F6E20796F75722063685F
:100ED6006573740057726F6E6720696E7075740063
:100EE60057454C434F4D452E2E2E2E004D6F6269B1
:100EF6006C65204D65646920426F780037326270F8
:020F06006D007C
:00000001FF
