S01700004D6F62696C655F4D6564695F426F782E737265634F
S11300000C945E000C947B000C947B000C947B009D
S11300100C947B000C947B000C947B000C947B0070
S11300200C947B000C947B000C947B000C947B0060
S11300300C947B000C947B000C947B000C947B0050
S11300400C947B000C947B000C947B000C947B0040
S11300500C947B00A401AA01B601B001B601B6015B
S1130060B601B601B601B601B601B601B601B601D4
S1130070B601B601A601AC01B601B201B601B601E2
S1130080B601B801B601B601B601B601B601B601B2
S1130090B601B601B601B601B601B601B601B601A4
S11300A0B601B601B601B601B601B601B601B60194
S11300B0B601B601A801AE01B601B40111241FBEF8
S11300C0CFE5D8E0DEBFCDBF10E0A0E6B0E0E0E5CC
S11300D0FDE002C005900D92AC3FB107D9F721E0D5
S11300E0ACEFB0E001C01D92A430B207E1F70E946A
S11300F074030C94A6060C94000094EA96BF06B60A
S113010007FEFDCF91B1987F983011F0903179F4CA
S113011083B984E886BF06B607FEFDCF91B1987F08
S1130120983139F081E0903429F480E0089581E039
S1130130089580E0089584E986BF06B604FCFDCFE7
S1130140089583B984E886BF06B607FEFDCF91B152
S1130150987F81E0983209F480E00895CF93DF938B
S1130160C82F8EE40E947D00DC2FD07F8091FC009C
S113017084608D2B0E94A10089EF90E00197F1F734
S113018000C000008091FC008D2B0E94A10089EF2B
S113019090E00197F1F700C0000090E1C99FE001F1
S11301A011248091FC0084608C2B0E94A10089EFB3
S11301B090E00197F1F700C000008091FC008C2BC7
S11301C00E94A10089EF90E00197F1F700C00000C0
S11301D00E949B00DF91CF910895CF93C82F8EE4A6
S11301E00E947D00C07F8091FC0084608C2B0E9463
S11301F0A10089EF90E00197F1F700C00000809121
S1130200FC008C2B0E94A10089EF90E00197F1F78C
S113021000C000000E949B00CF9108958093FC00D1
S113022080E30E94ED0080E30E94ED0080E30E94E1
S1130230ED0080E20E94ED0087E893E10197F1F779
S113024000C0000088E20E94AE008CE00E94AE0074
S113025086E00E94AE0081E00E94AE000895CF9334
S1130260DF93C82F8EE40E947D00DC2FD07F809125
S1130270FC00D82B8D2F85600E94A100DA7F80912D
S1130280FC008D2B0E94A10080E1C89F90011124E5
S1130290C091FC00C560C22B8C2F0E94A1002C2FA2
S11302A02A7F8091FC00822B0E94A1000E949B0067
S11302B0DF91CF910895623031F0633031F06130D5
S11302C029F4805C03C08C5E01C08C5A80680E9453
S11302D0AE00089581E00E94AE0008951F93CF936D
S11302E0DF930097B1F0EC0110E007C0FE01E20FCC
S11302F0F31F80810E942F011F5F212F30E0FE0138
S113030001900020E9F73197EC1BFD0B2E173F07F6
S113031068F3DF91CF911F910895CF93DF93EC01A0
S1130320862F642F0E945B01CE010E946E01DF9133
S1130330CF91089590E0FC017197E433F105B0F496
S1130340E65DFF4F0C94B60381E0089582E00895C2
S113035083E0089584E0089585E0089586E0089593
S113036087E0089588E0089589E008958FEF08955F
S113037080E008958FEF8ABB80EF8ABB89EF90E01D
S11303800197F1F700C000008FE08BBB89EF90E08C
S11303900197F1F700C00000089589B3803F29F167
S11303A029B39AB390959ABB89EF90E00197F1F73E
S11303B000C000009BB390959BBBE9EFF0E0319740
S11303C0F1F700C0000089B3822B80959AB3909511
S11303D09ABB9BB390959BBBE7EDF6ED3197F1F794
S11303E000C000008823C9F208958AB380958ABBAF
S11303F08BB380958BBB87ED96ED0197F1F700C029
S11304000000CBCFFF920F931F93CF93DF930E94F3
S11304106A012FEF80E792E0215080409040E1F79D
S113042000C0000061E080E00E945B0180E690E093
S11304300E946E012FEF80E792E0215080409040AF
S1130440E1F700C0000061E081E00E945B0110E080
S1130450C6E6D0E00E94CD01809303018831A1F467
S11304608091FD009091FE00909302018093010120
S11304700E946A012FE788E391E021508040904078
S1130480E1F700C0000046C00E949A011F928F93BA
S1130490DF93CF9300E00F93F12CFF920E94BC03F3
S11304A08091FD009091FE009C01220F331F880F64
S11304B0991F880F991F880F991F820F931F90937C
S11304C0FE008093FD00809103010E949A01209117
S11304D0FD003091FE00280F311D3093FE00209363
S11304E0FD008F2D902F0E946E019FEF20E782E088
S11304F0915020408040E1F700C00000612F81E06E
S11305000E945B011F5F0F900F900F900F900F9050
S11305100F90A0CFDF91CF911F910F91FF9008957D
S11305202FEF80E792E0215080409040E1F700C037
S1130530000061E080E00E945B0189E690E00E9497
S11305406E0141E061E082E790E00E948D010E942B
S1130550CD0180930301883229F410920001109296
S1130560FF0008C0813131F481E090E090930001F4
S11305708093FF002FEF80E792E02150804090406D
S1130580E1F700C000000E946A012FEF80E792E0CB
S1130590215080409040E1F700C000000895CF93BF
S11305A0DF93EC010E946A012FEF80E792E0215073
S11305B080409040E1F700C0000061E080E00E94CC
S11305C05B01CE010E946E01DF91CF91089582BB41
S11305D081B3836281BB8FB5826C8FBD8EB5896117
S11305E08EBD8FE19EE497BD86BD86B597B5805DCF
S11305F097409BBD8ABD86B597B5805293409BBDFD
S11306008ABD2FEF80E792E0215080409040E1F7CF
S113061000C0000086B597B5885998409BBD8ABD37
S11306202FEF80E792E0215080409040E1F700C036
S1130630000008952FEF80E792E021508040904021
S1130640E1F700C0000061E080E00E945B0182E805
S113065090E00E946E0141E061E08BE890E00E942E
S11306608D010E94CD01809303018132D9F018F4E9
S1130670813179F029C0883219F08134E1F024C045
S11306808BE990E00E94CF0280E090E00E94E702B4
S113069008958BE990E00E94CF0282E090E00E94EE
S11306A0E70208958DEA90E00E94CF0283E090E093
S11306B00E94E70208958EEB90E00E94CF0281E051
S11306C090E00E94E702089540E060E083ED90E04E
S11306D00E948D012FEF81EE94E0215080409040E4
S11306E0E1F700C0000008950E94BA0188E00E946A
S11306F00E010E946A012FEF83ED90E321508040A8
S11307009040E1F700C0000061E080E00E945B01DE
S11307108FED90E00E946E012FEF83ED90E3215066
S113072080409040E1F700C0000041E061E08BEEC2
S113073090E00E948D012FEF83ED90E321508040E3
S11307409040E1F700C000000E946A012FEF82E5AB
S113075097E0215080409040E1F700C000000E94E3
S113076002020E9490020E941A03F9CFEE0FFF1FAB
S11307700590F491E02D0994AEE0B0E0E2ECF3E0F2
S11307800C947D060D891E8986E08C831A83098367
S11307908FEF9FE79E838D83AE01475E5F4F6F8926
S11307A0788DCE0101960E94DE03EF81F885E00F7B
S11307B0F11F10822E96E4E00C949906ABE0B0E0B1
S11307C0E4EEF3E00C946F066C017B018A01FC01FA
S11307D017821682838181FFCCC1CE0101963C0130
S11307E0F6019381F70193FD859193FF81917F0138
S11307F0882309F4BAC1853239F493FD859193FFB6
S113080081917F01853229F4B60190E00E94D505DB
S1130810E7CF912C212C312CFFE1F315D8F08B324A
S113082079F038F4803279F08332A1F4232D2061F9
S11308301DC08D3261F0803369F4232D216016C010
S1130840832D8260382EE32DE4603E2E2AC0F32DE2
S1130850F8601DC037FC2DC020ED280F2A3040F071
S11308608E32B9F436FC81C1232D2064322E19C096
S113087036FE06C08AE0989E200D1124922E11C0E7
S1130880EAE02E9E200D1124222EF32DF0623F2E3D
S113089008C08C3621F4832D8068382E02C0883637
S11308A041F4F70193FD859193FF81917F018111BB
S11308B0B3CF982F9F7D9554933028F40C5F1F4F2E
S11308C09FE399830DC0833631F0833771F083350C
S11308D009F059C021C0F801808189830E5F1F4F40
S11308E088248394912C530113C02801F2E04F0E05
S11308F0511CF801A080B18036FE03C0692D70E060
S113090002C06FEF7FEFC5010E94CA054C0182014E
S1130910F32DFF773F2E16C0280122E0420E511C12
S1130920F801A080B18036FE03C0692D70E002C0DA
S11309306FEF7FEFC5010E94BF054C01F32DF068F6
S11309403F2E820133FC1BC0822D90E0881699064D
S1130950B0F4B60180E290E00E94D5052A94F4CF69
S1130960F50137FC859137FE81915F01B60190E076
S11309700E94D50521102A9421E0821A910881143D
S1130980910471F7E8C0843611F0893641F5F80115
S113099037FE07C060817181828193810C5F1F4F94
S11309A008C060817181072E000C880B990B0E5FC3
S11309B01F4FF32DFF763F2E97FF09C0909580952A
S11309C0709561957F4F8F4F9F4FF0683F2E2AE0BF
S11309D030E0A3010E941106882E861845C0853791
S11309E031F4232D2F7EB22E2AE030E025C0932D42
S11309F0997FB92E8F36C1F018F4883579F0B5C0D7
S1130A00803719F0883721F0B0C0E92FE061BE2E9D
S1130A10B4FE0DC0FB2DF460BF2E09C034FE0AC025
S1130A20292F2660B22E06C028E030E005C020E160
S1130A3030E002C020E132E0F801B7FE07C0608177
S1130A407181828193810C5F1F4F06C06081718127
S1130A5080E090E00E5F1F4FA3010E941106882ED4
S1130A608618FB2DFF773F2E36FE0DC0232D2E7FDB
S1130A70A22E891458F434FE0BC032FC09C0832D15
S1130A808E7EA82E05C0B82CA32C03C0B82C01C0A0
S1130A90B92CA4FE0FC0FE01E80DF11D8081803346
S1130AA021F49A2D997EA92E09C0A2FE06C0B39402
S1130AB0B39404C08A2D867809F0B394A3FC11C0C2
S1130AC0A0FE06C0B21488F4280C922C9B180EC009
S1130AD0B21460F4B60180E290E00E94D505B394AC
S1130AE0F7CFB21418F42B1802C0982C212CA4FEB2
S1130AF010C0B60180E390E00E94D505A2FE17C0A5
S1130B00A1FC03C088E790E002C088E590E0B6014C
S1130B100CC08A2D867859F0A1FE02C08BE201C078
S1130B2080E2A7FC8DE2B60190E00E94D50589140D
S1130B3038F4B60180E390E00E94D5059A94F7CF8B
S1130B408A94F301E80DF11D8081B60190E00E94C2
S1130B50D5058110F5CF222009F442CEB60180E2FA
S1130B6090E00E94D5052A94F6CFF60186819781FC
S1130B7002C08FEF9FEF2B96E2E10C948B06FC01F1
S1130B800590615070400110D8F7809590958E0FB4
S1130B909F1F0895FC016150704001900110D8F727
S1130BA0809590958E0F9F1F08950F931F93CF9359
S1130BB0DF93FB01238121FD03C08FEF9FEF2CC046
S1130BC022FF16C04681578124813581421753077D
S1130BD044F4A081B1819D012F5F3F4F3183208375
S1130BE08C93268137812F5F3F4F3783268314C030
S1130BF08B01EC01FB010084F185E02D0995892B23
S1130C00E1F6D80116968D919C9117970196179647
S1130C109C938E931697CE01DF91CF911F910F91E4
S1130C200895FA01AA27283051F1203181F1E8947E
S1130C306F936E7F6E5F7F4F8F4F9F4FAF4FB1E0CB
S1130C403ED0B4E03CD0670F781F891F9A1FA11DC6
S1130C50680F791F8A1F911DA11D6A0F711D811DC7
S1130C60911DA11D20D009F468943F912AE0269F8C
S1130C7011243019305D3193DEF6CF010895462FEB
S1130C804770405D4193B3E00FD0C9F7F6CF462FCC
S1130C904F70405D4A3318F0495D31FD4052419335
S1130CA002D0A9F7EACFB4E0A695979587957795F2
S1130CB06795BA95C9F700976105710508959B0179
S1130CC0AC010A2E06945795479537952795BA9502
S1130CD0C9F7620F731F841F951FA01D08952F92DB
S1130CE03F924F925F926F927F928F929F92AF92B8
S1130CF0BF92CF92DF92EF92FF920F931F93CF9305
S1130D00DF93CDB7DEB7CA1BDB0B0FB6F894DEBF9B
S1130D100FBECDBF09942A88398848885F846E84C1
S1130D207D848C849B84AA84B984C884DF80EE800B
S1130D30FD800C811B81AA81B981CE0FD11D0FB614
S1130D40F894DEBF0FBECDBFED010895F894FFCF38
S1130D504167653A200025640047656E6465723A10
S1130D602000302E4D616C6520312E46656D616C1E
S1130D70650053656C6563743A2000302E5420314D
S1130D802E4F20322E4520332E4800506C6163656F
S1130D9020596F75722046696E67657200506C61E8
S1130DA0636520596F7572205468756D70005075B5
S1130DB074206974206F6E20796F75722063686582
S1130DC073740057726F6E6720696E707574005784
S1130DD0454C434F4D452E2E2E2E004D6F62696CAF
S10F0DE065204D65646920426F780000B6
S9030000FC
